:020000040800F2
:1000000000500020E9010008E501000800000000A0
:10001000E5010008E5010008E50100080000000016
:10002000000000000000000000000000E5010008E2
:10003000E501000800000000E5010008E5010008F6
:10004000E5010008E5010008E5010008E5010008F8
:10005000E5010008E5010008E5010008E5010008E8
:10006000E5010008E5010008E5010008E5010008D8
:10007000E5010008E5010008E5010008E5010008C8
:10008000E5010008E5010008E5010008E5010008B8
:10009000291A0008E5010008E5010008E50100084B
:1000A000E5010008E5010008E5010008E501000898
:1000B000E5010008E5010008E5010008E501000888
:1000C000E5010008E5010008E5010008E501000878
:1000D000E50100084D220008E5010008F1210008B3
:1000E000E5010008E5010008E5010008E501000858
:1000F000E5010008E5010008E5010008E501000848
:10010000E5010008E5010008E5010008E501000837
:10011000E5010008E5010008E5010008E501000827
:10012000E5010008E5010008E50100080000000005
:1001300000000000000000000000000000000000BF
:1001400000000000000000000000000000000000AF
:10015000000000000000000000000000000000009F
:10016000000000000000000000000000000000008F
:10017000000000000000000000000000000000007F
:10018000000000000000000000000000000000006F
:10019000000000000000000000000000000000005F
:1001A000000000000000000000000000000000004F
:1001B000000000000000000000000000000000003F
:1001C000000000000000000000000000000000002F
:1001D000000000000000000000000000000000001F
:1001E0005FF8E0F1FEE7C046684620F007018D4663
:1001F00001B5002103E00A4B5B5843500431094824
:10020000094B42189A42F6D3084A02E0002342F80A
:10021000043B074B9A42F9D300F00CF8FEE7C046C6
:10022000683F00080000002050000020500000201F
:10023000C80800202DE9F04F002091B001F078FAB5
:100240000020AE4C01F0ACFB0FAD012001F036FBFD
:10025000284602F0C7FAA288216802230A610846EC
:100260008DF83E300A91123329460B92ADF83C20AE
:100270008DF83F3002F062FAA368A189184619612F
:100280000D91ADF83C1029460C9302F057FA226903
:10029000A48A29461461104604920394ADF83C40A8
:1002A00002F04CFA0025954E10AC06F1180358598F
:1002B0005B199B88083524F8043D0361214602F050
:1002C0003DFA282DEFD1B6F84420316C07924A61EF
:1002D000084606912146ADF83C2002F02FFAB36C97
:1002E000B6F84C10184659610991ADF83C102146FA
:1002F000089302F023FA326DB6F854602146566135
:10030000104601920096ADF83C6002F017FA002406
:100310000B9A0A990C9B4A610D99049A5961039BA7
:100320000120536101F02EFB0B9A0A990C9B0A6184
:100330000D99049A1961039B01201361013401F0A6
:1003400021FB802CE4D16D4B01209A8B99699D6B28
:100350009C8F1F6AB3F824B0D3F828A0B3F82C9070
:10036000D3F830809E8E4A61C7F814B0CAF8149052
:10037000C8F814606C610292059101F003FB0299C8
:10038000059B01201961C7F810B0CAF81090C8F891
:1003900010602C6101F0F6FA0B9A10AC24F8042DD1
:1003A00048230A9821468DF83F3002F0C7F90D9B8B
:1003B0000C982146ADF83C3002F0C0F9039904983E
:1003C000ADF83C10214602F0B9F900254C4A10ACBA
:1003D00053199B88505924F8043D2146083502F0F2
:1003E000ADF9282DF2D1079A21460698ADF83C20A8
:1003F00002F0A4F9099B21460898ADF83C3002F0C0
:100400009DF900990198ADF83C1021463D4C02F051
:1004100095F9642001F08CFAA36883F00403C3F318
:10042000800601F0F9FA18B9A36813F0040F0DD192
:100430004EB14FF40000012102F0B8FC4FF400006F
:10044000002102F0B3FC002001F01EFB002000F0B0
:100450002FFF002000F006FB202000F0CFF8102036
:1004600000F0CCF801F05AFA01F048FA3222B0FB61
:10047000F2F26421B2FBF1F301FB132342F210729A
:100480005D08B0FBF2F302FB130341F288329342A2
:1004900088BFC5F132053223B0FBF3F103FB110134
:1004A0000446A94294BF00210121012001F0F2F984
:1004B0000A22B4FBF2F302FB13430BB900F036FB44
:1004C000002000F0B7FD01F019FA44F61F639842CE
:1004D000CAD900F063F80028C6D126B1094B9B6841
:1004E00013F0040FC0D002F0E1F90120002101F067
:1004F000D1F9054BDB78082B33D107E0AC3C000881
:10050000C43C0008000C0140044000086FF00700E4
:10051000012102F03DFC6FF40000012102F046FCD5
:100520004FF0FF30002102F033FC4FF0FF3000218C
:1005300002F03CFC56B101214FF4000002F036FC01
:100540004FF40000002102F031FC03E0104B1E606C
:1005500004331E600F4B1B6883F308880E4B1B6827
:10056000984701F0DBF90120014601F093F901F011
:10057000C5F9B0F5FA7FFAD301F0D0F901200021D6
:1005800001F088F901F0BAF9B0F5FA7FFAD3E8E79B
:10059000405C00400040000804400008014B18780F
:1005A0007047C04650000020134991F801C0BCF1CB
:1005B000030F0AD84B6800F07F024FEAC31343EAE7
:1005C00002134B6012D1042312E0BCF1070F02D9D1
:1005D0004FF0FF300EE08B6800F07F024FEAC3134C
:1005E00043EA02138B6001D1082301E00CF10103FF
:1005F0004B7000207047C0465000002030B50022EC
:1006000089B004460C4B6D469B5C0DF802300132FC
:10061000052AF7D100F07CFA01238DF805008DF84A
:10062000063020466FF00803694608228DF807302F
:1006300000F0BEFA09B030BD143D000810B520200E
:10064000FFF7DCFF1020FFF7D9FF024B00201870E6
:1006500010BDC04650000020F0B5154689B00646D2
:100660000C4600220D4B6F469B5C0DF802300132A8
:10067000052AF7D100F04CFA6FF008038DF8050059
:100680006946304609228DF806408DF807508DF8EE
:10069000083000F08DFA09B0F0BDC046143D0008E6
:1006A000054B10B51B8898B27F2802D8C0B200F065
:1006B00027FA002010BDC046FE3F00082DE9F04794
:1006C0001E4682460C46174601F028F9022E00F01D
:1006D0008F800C2E00F06A81012E02D04FF0FF3087
:1006E000B0E11CB1012CAC4D0AD104E0AA4B5C7006
:1006F0005C609C6064E16B78072B00F2A28193E060
:100700006B78082B40F0D980D5F80490D5F8088094
:100710000021A24AA04F525C07F10C035A54013148
:100720000529F6D100F0F4F902234FEA596CBB74A5
:100730004FEA5863C9F38646FB756344C9F3C6257F
:100740009B19C9F306145B1978741B19C8F386400A
:10075000C8F3C6211B18C8F306125B189B18BA769B
:1007600000223E757D75797687F813C0BC753876A2
:1007700003F0FF0E114607F11B0615461EE015F8A3
:10078000093000201C46E30943EA4103D9B2630063
:10079000DCB2531CDAB2062A0BD9C2F1070311FAF4
:1007A00003F3DBB206F8013B002273445FFA83FED9
:1007B0001146431CD8B20828E5D101354545DED3A2
:1007C0002AB10EEB010306F8011B5FFA83FECEF19E
:1007D0000003324603F07F0302F8013B70496FF0DB
:1007E0000803013273705046521A00F0E1F928E113
:1007F0001CB1012C684D54D10EE0674B5C705C60FD
:100800009C6083F8B24483F8B344C3F8B444C3F89B
:10081000B844C3F8BC44D3E06C78072C08D895F8EA
:10082000B234FB1885F8B2343846FFF7BDFE08E154
:10083000082C2FD195F8B234D5F8B424FB18B2F5B2
:10084000806F85F8B23480F0FC80D5F808E0D5F8E8
:10085000B864D5F8BC0421460025C7F380130136DF
:1008600043EA40007B00072EDFB207D94A4B00263F
:100870009B1801321873724528BF09210135072DD5
:10088000EBD1454B5970C3F8B424C3F8B864C3F82E
:10089000BC04D6E0092C02D185F8B374D1E00C2356
:1008A00096E0AF68D5F8B434BB4203D250460E216F
:1008B0000122C4E06B780C2B03D150460E21324646
:1008C000BDE095F8B23495F8B3245B4203F07F03A2
:1008D0009A4203D050460E210322B0E06E680123F5
:1008E0002B7046EA070313F0030402D06FF00802EE
:1008F0004DE02C4B9E4238D900F0C0FE2A4BC31865
:100900009E4232D801F0C6FF25462AE000F0A0FF43
:1009100000F0B4FEB0F5802F2CBF4FF400604FF410
:100920008060B4FBF0F300FB134323B9204602F0D0
:100930000FF804280AD11A4A204653195B78515DF2
:1009400041EA032101F0E6FF042807D0142001F05A
:10095000B5FF00F08FFF6FF0030218E000F08AFF90
:100960000235AC19BD42D1D36EE0B6F1005F0CD3B5
:1009700000F08CFE00F100500138864205D8304668
:1009800007493A4603F074F95EE06FF007025242FD
:1009900050460E21D2B252E050000020143D000813
:1009A0005C000020FF3F0008FFBFFF071CB1012CC7
:1009B0002A4D11D106E0294A0A2382F8C044537017
:1009C00020463FE06B780A2B04D185F8C0740133D0
:1009D0006B7036E06E7034E06B780B2B03D05046B2
:1009E0000E2102222BE095F8C04400F091F88442D9
:1009F00018D000F08DF818B150460E210F221EE0DD
:100A000000F026FF01F046FF154895F8C01401F0EC
:100A100081FF042802D0142001F050FF01F046FFAE
:100A200000F028FF0D4C0F2194F8C0245046FFF72A
:100A300013FEFFF735FE94F8C02450460F21FFF750
:100A40000BFE0020BDE8F087044B504693F8B2241B
:100A50000F21524202F07F02F1E7C0465000002011
:100A6000FE3F000810B5044610B14FF0FF3004E01F
:100A7000024B1870FFF714FE204610BD50000020F6
:100A8000034B10B55B680BB9184600E0984710BDE2
:100A900014050020134BF7B5074658680C4608B9F3
:100AA00005461CE0C4F30723C1F307428DF8053067
:100AB0000D4B090E8DF8062004F00F0200248DF86E
:100AC00007109E5C254608E0064B38465A680DF133
:100AD0000503195D904701340543B442F4DB284611
:100AE000FEBDC04614050020043D0008012817BFC4
:100AF000024B4FF0FF30587000207047000000207C
:100B0000024B00F07F00187200207047140500208F
:100B1000014B187A7047C04614050020024B002094
:100B2000187418767047C0461405002010B501F0FF
:100B30003DFA044600F0D8FC04494FF6FF738A8C56
:100B40009A4201D0531C8B84204310BD1405002011
:100B500010F0F00F70B504460D4604D1012812487C
:100B60000CBF44780478114B04F00F061B6866F341
:100B7000071523B1204629469847034688B904F053
:100B8000F000102804D0202806D04FF0FF3308E0F2
:100B9000284601F041FA03E03046294600F03EFDC8
:100BA0000346184670BDC046000000201405002012
:100BB0002DE9F04180460E461746002543E07B1B99
:100BC000022B0FD0032B1BD0012B715D05F101020D
:100BD00026D1052363F3030461F30F2415466FF355
:100BE00017440AE0062363F30304735D6A1C63F38E
:100BF0000F24B35C551C63F317446FF31F641CE0B0
:100C0000072363F30304735D63F30F246B1CF25C2F
:100C1000013362F31744F25C5D1C62F31F640CE065
:100C2000042363F30304B35C61F30F24013263F321
:100C30001744B35C551C63F31F6440462146FFF71D
:100C400087FF002802DBBD42B9D30020BDE8F08158
:100C500000B58C46A1B04FF0000E144B6A4613F855
:100C60000E300DF80E300EF1010EBEF1050FF4D16D
:100C70000F4BD11D1B7A8DF805300F238DF80630F0
:100C8000002304E00133642B01F8012B03D01CF88E
:100C90000320002AF6D10A466FF0080302F8013B50
:100CA0006946521AFFF784FF21B000BD143D0008C9
:100CB0001405002000B54FF0000E89B00D4B13F85D
:100CC0000E300DF80E300EF1010EBEF1050FF5D10C
:100CD000094B8DF806101B7A8DF807208DF805302A
:100CE00069466FF0080309228DF80830FFF760FFAE
:100CF00009B000BD143D0008140500200FB410B564
:100D0000A4B0269C204602F0C9FF64280DF1030020
:100D100005D908301D4902F0B9FF002206E027AAD4
:100D200008302146239201F0F1FCF6E7184B0DF153
:100D300003019B5C8B540132052AF7D1154B083116
:100D40001B7A03328DF808300D238DF809303333C8
:100D50008DF80A3007E003F07F0301F8013B531CD4
:100D60009AB2882A02D00B78002BF4D16FF00803D6
:100D70000B70094B013258780DF1030192B2FFF765
:100D800017FF24B0BDE8104004B070472C3E0008A7
:100D9000143D00081405002000000020F0B55E4E50
:100DA0008BB0337E05460C461746FFF787FC0028BC
:100DB00080F2AF80317E0D2966D001D839B1A1E033
:100DC0000E2900F0A6800F2940F09C808FE014B11E
:100DD000012C06D102E086F826409AE086F82670BB
:100DE00097E096F82630052B28D00AD8022B18D089
:100DF00002D8012B44D111E0032B15D0042B3FD195
:100E000015E0082B31D004D8062B20D0072B37D182
:100E100020E0092B2CD07F2B32D12EE028463F49F1
:100E200028E028463E4925E028463E4922E000F0D9
:100E30001FFC6C4602463C49684611E0684600F0DB
:100E40002DFC00286C460DDA2846384912E000F0E7
:100E500015FC01E000F01AFC354902466C46684674
:100E600001F05CFC2846694604E02846314901E06F
:100E700031492846FFF7ECFE4BE0FFF7DFFB48E087
:100E800028460E210D223AE01CB1012C2B4C14D126
:100E900004E02A4B4FF0FF329A703AE0A378FF2B20
:100EA00001D1A77035E0002B33D1F369002B30D08E
:100EB00096F82700394698472BE0A2789AB9284639
:100EC0000F21FFF7F7FEA3781BBBF3690BBB647818
:100ED0002846FFF70BFE29461948FFF70FFF20466B
:100EE000FFF704FE15E028460E21102207E00CB1A2
:100EF000012C01D174610CE0726952B92846FFF7E8
:100F0000D9FE06E00E210A462846FFF7D3FEFFF77A
:100F100005FE00200BB0F0BD140500207F3E000848
:100F2000863E0008963E0008A03E0008A53E000848
:100F3000A73E0008AA3E0008BC3E000800000020B2
:100F4000CE3E0008F72910B58C4650D829490B7CB5
:100F5000C3F3C00232B191F82730834202D04FF080
:100F6000FF3045E0234981F82700E2B90B7C03F00C
:100F70000702042A03D8204B9B181B7C02E0052A99
:100F800002D10B7A63451CD11A4901320B7C02F065
:100F9000070262F30203052A0B7428D9DBB243F07F
:100FA00008030B7423E01CF0800F0DD0BCF1F70F89
:100FB00007D10B7C13F0100F03D002216246FFF71C
:100FC000EDFEFFF7ABFD12E00B7CC3F3001454B948
:100FD00043F010030B7481F818C062462146FFF7F6
:100FE000DDFE204604E001216246FFF7D7FE002027
:100FF00010BDC04614050020043D000810B50B4A82
:101000000446137C13F0080F05D092F82730834272
:1010100001D1FFF783FD054B1B6A0BB120469847B2
:1010200021460348FFF76AFE002010BD140500208A
:101030001C3F00082DE9F04F002285B08046019248
:1010400092464FF0010B531C5FFA83F90A2A21D80C
:10105000DFE812F00B0014001A00F500F500F500AF
:10106000F500F500F500F500F50003A800F01EFFFF
:10107000039BC3F3031303F1100517E0002003A93A
:1010800000F052F9202511E0012003A900F04CF9ED
:1010900021250BE0BAF1000F00F00581019A092A21
:1010A00000F201814FF00009CA46C8E010F10A0FB2
:1010B00006D12846FFF7A2FF4FF0000B4A46BFE0DB
:1010C0000028C0F2BC8001990AF101035FFA83FA9B
:1010D0004B1C0399DBB26FF3071101F00F02019370
:1010E00002F1080303F00F03062B039105D8B8F1B2
:1010F000000F00F0A4802846A0E0931E0D2B00F204
:101100009E80DFE803F0585807545C5C9C9C9C9CD4
:101110009C9C9C079DF80D10F7294CD8F02916D1FE
:101120006248836A9BB905F0F002102A02D0302A87
:101130000DD106E0838405F00F020123934003855F
:1011400005E0838405F00F02012393404385284680
:10115000FFF7F8FE039B03F00F030F2B09D09DF858
:101160000E102846FFF7EEFE28469DF80F10FFF7F9
:10117000E9FE4E4FFC680CB9264659E028469DF81A
:101180000D10A047039BC6B203F00F030F2B4FD0E7
:10119000FB689DF80E1028469847FB6804469DF8AA
:1011A0000F102846984704433443E6B240E09DF8C8
:1011B0000D30F72B03D9B8F1000F3DD13FE0131FDD
:1011C000DFB20FB93E4633E09DF80D402846214678
:1011D000FFF7B8FE354BDB680BB91E4603E0284627
:1011E00021469847C6B2012F1DD09DF80E402846D3
:1011F0002146FFF7A7FE2D4BDB6823B12846214689
:1012000098473043C6B2022F0DD99DF80F402846AB
:101210002146FFF797FE254BDB6823B12846214680
:1012200098473043C6B2F72C02D1204B00229A6275
:10123000B8F1000F03D016B903992846C0474A46B3
:101240001A48836A3BB3838CB3F57A7F23D9018D27
:1012500061B1002251FA02F313F0010303D101320C
:10126000102AF7D11A4602F110030DE0408D60B14B
:101270000A4650FA02F313F0010303D10132102A97
:10128000F7D11A4602F13003D8B2FFF7B7FE074B89
:1012900000229A6203E0BBF1000F7FF4D4AE00207D
:1012A00005B0BDE8F08F4FF0000BC8E71405002033
:1012B00070B5044610B14FF0FF301CE00E4A102309
:1012C000137053700D4B58601860D8601862D86165
:1012D00000F074FDC50F204600F0ACF9074A002865
:1012E000B8BF45F00205002382F82730137413724B
:1012F00093849362684270BD0000002014050020B2
:101300000C23434304490020CA18C850107150717F
:101310009071D071108170474005002001288CBF6A
:10132000002001207047C0462DE9F04781460F4656
:10133000FFF7F4FF002800F0CD800C2303FB09F633
:10134000DFF8A08108EB0604ACE0C0B210F0800F1B
:1013500052D0F72808D93B6843F00F033B600023C5
:101360007870BB70FB70A5E05C4BC0F302129D5C13
:1013700020716571002D36D1594A00F00F03D35CFE
:10138000F028637106D16FF00F0363701133E371BE
:101390002A4629E0F72826D1E17919B101292378D5
:1013A00014D10AE02378052262F3030323706FF05F
:1013B00008036370A170E1700FE0062262F303037B
:1013C00023706FF00803A370E57006E0072262F354
:1013D000030323706FF00803E370236801223B606E
:1013E0000023E37100E000226379A3714FF0000352
:1013F0002381002A56D05DE02379F02B1AD1E379BE
:101400000133DBB2012BE37102D0022B04D101E0E6
:10141000607047E0A07045E0E07018F806300422E4
:1014200062F3030308F8063058F806303B600023E7
:10143000E3713FE0A27922B963792281013BA37174
:1014400001E0531EA3716379012B03D1013BA0700E
:10145000E37004E0A3790BB1A07000E0E070A37921
:1014600003BB227902F0F003F02B03D0120918F825
:1014700006300DE0637923B1012B18F8063006D150
:1014800003E018F80630052202E0022200E0032201
:1014900062F3030308F806302379637058F80630C6
:1014A0003B6007E0484600F0FDFE0028BFF64DAF68
:1014B000002200E00122A3794BB12389B3F57A7FA2
:1014C00005D94846FFF71CFF6FF0090004E00AB198
:1014D000002001E04FF0FF30BDE8F087193D000823
:1014E000213D00084005002010B500F0B1F9124977
:1014F0004FF6FF734A8B9A4201D0531C4B830E491F
:101500004FF6FF730A899A4201D0531C0B810A4996
:101510004FF6FF738A8B9A4201D0531C8B83064986
:101520004FF6FF738A8A9A4201D0531C8B8200F0D7
:10153000A1F9002010BDC04640050020012810B5CB
:10154000044602D94FF0FF300EE000F081F9074B5E
:101550004FF0FF3219198A7703EB44034FF0000272
:101560005A8300F087F9002010BDC04640050020D6
:10157000F7B506460C46FFF7D1FE002845D0254BAF
:1015800004F00F029D5C002D42D02348210EC4F3CD
:101590000727C4F3074E00EB4604638B8DF80570F4
:1015A000B3F57A7F8DF806E08DF8071003D9304641
:1015B000FFF7C4FF1AE0037E334113F0010F15D08B
:1015C000072A13DD0F2A11D0012D01D801250DE0C6
:1015D00083199B7FBB4206D16B1E8DF805E08DF809
:1015E0000610DDB202E04FF000036383F72F02D84C
:1015F000094B9B199F7730460DF105012A4600F0F3
:1016000085FD10F1020F04D010B14FF0FF3000E063
:101610000020FEBD043D00084005002070B50546D1
:101620000C4628462146FFF7A3FF10F1020FF8D021
:1016300070BDC04610B50446A8B9FFF761FE012091
:10164000FFF75EFE094B4FF0FF321A762046FFF798
:1016500075FF0120FFF772FF204600F083FE00288F
:1016600001DB204601E04FF0FF3010BD40050020B7
:10167000014B18687047C046002004E0024B1888F0
:1016800080B280027047C046E0F7FF1F024B188807
:1016900080B280027047C046E2F7FF1F10B50021FC
:1016A00004460B4A4B109A18137811F0010F08BF2B
:1016B0001B0903F00F02092A8CBF372330239B1824
:1016C000635401311829ECD10020207610BDC046AA
:1016D000E8F7FF1F07B56B4683E8030001214FF0D1
:1016E000C05001F047FB012001F002FC01F0F8FBC3
:1016F0004FF4407001F0D6FA012001F0DBFA01F05E
:10170000DFFB01F0D5FB0120014601F08FFB01F06A
:10171000CFFB064801F0BCFB01F0CAFB009801F0CA
:10172000A9FB01F0C5FB00200EBDC046356E0100CF
:1017300030B5054685B0002876D103AC01217D3057
:1017400001F00AFB204601F04DF848238DF80F30D8
:1017500037484EF2FF732146ADF80C3000F0EEFF33
:101760004FF0FF3333482146ADF80C3000F0E6FF70
:101770003148214600F0E2FF3048214600F0DEFF0C
:1017800001F05AFA082801D12C4633E001F0FEF9A5
:101790004FF4803001F01AFA01F032FB01280446C0
:1017A00028D1102001F06AF8022001F05DF82846E7
:1017B00001F04AFA284601F05BFA4FF4806001F02C
:1017C0004DFA4FF4004001F063FA4FF480304FF4CB
:1017D000801101F017FA204601F01EFA392001F0BD
:1017E000F9FA0028FAD0022001F01CFA01F024FADC
:1017F0000828FBD10021124801F0B8FB4FF44070DB
:1018000001F07CFB042001F0BBFB0E4A0E4B1A607A
:101810000E4A01AB92E8030083E80300FFF75AFF8A
:10182000012C01D1002001E04FF0FF3005B030BDA8
:10183000000801400010014000140140000C01406C
:101840000000000800FF1F00042004E0343D0008F1
:1018500007490A6812B9EFF310834B604FF001009B
:1018600080F31088024B01321A6000207047C04696
:1018700060050020064A136813B94FF0FF3006E0F8
:10188000013B136013B9536883F31088002070473D
:101890006005002010F0010F07D011F0010F064B7A
:1018A00014BF04224FF480221A6130F0010018BFE7
:1018B0006FF001007047C0460014014037B501AD1C
:1018C0000446284600F08EFF14F0010F0DD04FF0B3
:1018D0000403ADF8043003238DF8063006480D33B9
:1018E00029468DF8073000F029FF34F0010018BFB9
:1018F0006FF001003EBDC04600140140064810B51F
:101900000121848C01F032F9A4B200280CBF2046DA
:101910004FF0FF3010BDC0460010004003480121C9
:10192000818410B501F02EF9002010BD0010004098
:1019300030B5012185B00446102001F01BFA4FF0AC
:10194000FF33ADF80A30482363430D4C013B0025BB
:1019500020460DF10601ADF80630ADF80C50ADF89B
:10196000085001F099F801210A46204601F0F2F8EA
:101970002046012101F0E0F8284605B030BDC04600
:1019800000100040054B9B8C9AB2044B9B8C9B1A19
:101990009BB28342F9D900207047C046002C014019
:1019A0001FB5044610B14FF0FF301AE04FF400604D
:1019B000012101F0D1F94FF0FF33ADF80A300A48A8
:1019C0004FF047030DF10601ADF80630ADF80C40BD
:1019D000ADF8084001F060F80348012101F0ACF8CF
:1019E000204604B010BDC046002C0140014B04222B
:1019F0001A607047680500207047C0467047C046AF
:101A0000022070470220704719B9012801D8084602
:101A100000E002207047C04610B5002002F02AF80E
:101A2000003818BF012010BD0D4A10B513689CB2D4
:101A300014F4806F06D04FF6FF331360094B1B6818
:101A40005B68984714F4007F03D0054B4FF6FF52B4
:101A50001A6014F4004F01D001F012FF10BDC0460F
:101A6000445C0040B408002010B5054B1B689B7A0D
:101A70002BB1012000F0A8F9024B05221A6010BD1D
:101A8000BC0800206805002037B5044601A800F016
:101A9000A9FE022C02D94FF0FF3083E0FFF7D8FEF9
:101AA000414B00221A60FFF7E5FE022C12D03F4B9B
:101AB0003F4A40481A604049022202F0D9F83F4BA1
:101AC0003F4A13603F4A303313603F4A3F4B136035
:101AD0003F4BD361354D002000F076F92B68022290
:101AE0001A7200229A72A4B9FFF796FF88B10120FA
:101AF000202101F0C7FF012001F0F0FF2A686FF0FC
:101B00007F035372813393722E4B1B685B68984737
:101B10002FE0254A032313604FF48052ADF80420D0
:101B200001A910222B488DF807208DF8063000F00F
:101B300005FE0021274A4FF480535361264B0131A3
:101B40009942F7D1184B02221A600022214B013230
:101B500000200A2A5861F9D1134B18600433186029
:101B600001F090F801214FF4000001F003F9022C7C
:101B700006D01A4B00221A6002F50442043B1A6098
:101B8000174B00241C6014238DF8003008238DF8B7
:101B90000130684601238DF802408DF8033001F0D2
:101BA000B7F920463EBDC046405C0040BC0800205E
:101BB0006C050020C00800203C3D0008403D0008A6
:101BC000B4080020B808002004000020991F000875
:101BD000991E000800080140400D0300445C0040CD
:101BE0006805002010B5C6B036490C22044641A84D
:101BF00002F03EF80DF1F2003349122202F038F8FB
:101C0000324B1B68DB78032B58D8DFE803F00A0659
:101C1000023101AA0221002022E001AA02210020B3
:101C20000FE00DF1020309229A700422DA701146C6
:101C300037E002F8023C002302F8013C8B1C99B209
:101C4000013041AB1B5C63B30232C829F1D128E0FB
:101C500002F8023C002302F8013C8B1C99B20130CF
:101C60000DF1F2031B5CE3B10232C829F0D118E098
:101C70000DF1CA00FFF712FD00281FDB01AA0221A7
:101C8000002007E002F8023C002302F8013C8B1C14
:101C900099B201300DF1CA031B5C13B10232C8299D
:101CA000F0D10DF1020303221970ADF814115A702E
:101CB000204644A9449301F097FA00E0002046B082
:101CC00010BDC046523F0008AA3E0008BC080020D4
:101CD00013B5064B04466A4693E8030082E8030006
:101CE0002046694601F080FA1CBDC046943D0008BC
:101CF00013B5064B04466A4693E8030082E80300E6
:101D00002046694601F070FA1CBDC0469C3D0008A3
:101D1000274B10B51A6800246FF07F03537294723A
:101D2000D472204601F08EFE20464FF4007101F07F
:101D300093FE2046102101F0A5FE2046402101F02F
:101D400027FF8021204601F013FF204601F0D8FE36
:101D5000184B20461B6893F82C1001F053FF2046C7
:101D600001F0BCFE0120214601F076FE0120C021D9
:101D700001F0FEFE0120402101F036FF012020216C
:101D800001F080FE01204FF4807101F001FF40213D
:101D9000012001F037FF012001F0A0FE204601F0F4
:101DA00033FA204600F010F8034B01221A6010BDF0
:101DB000BC080020B408002068050020002814BFDB
:101DC0004FF0FF30002070470D4A0021118013882A
:101DD0009BB2538053889BB2938091711181138978
:101DE0009BB2538153899BB2938118B101239373A2
:101DF000D17302E001239073D37300207047C04673
:101E00008805002070B5224CFFF722FDA379002B36
:101E10003AD0012001F016FFC0F38F06002E33D018
:101E2000238832B29BB2C3F140039A422CDA194D97
:101E300035F8043C35F8082C42EA0344C4F3031097
:101E400010302146FEF726FE90B9114A53889BB206
:101E500002EB83031C61538801339BB25380538888
:101E60003F2B88BF50800A4A138801339BB21380EE
:101E7000731E9EB233B20835002BD9DC044B00220E
:101E80009A71012001F02AFEFFF7F4FC70BDC046F4
:101E90008805002008620040034B012210B59A71AA
:101EA000FFF7B0FF10BDC0468805002070B5114C8B
:101EB0000546238813B94FF0FF3019E0FFF7C8FC3F
:101EC000A3889BB204EB83031B692B60A3880133B7
:101ED0009BB2A380A3883F2B84BF0023A380054C23
:101EE0002388013B9BB22380FFF7C4FC238898B270
:101EF00070BDC0468805002070B5FFF7A9FC234AD5
:101F0000D37B002B3FD11389002B3CD0937B002B3C
:101F100039D01389102B01D9102501E013899DB206
:101F200029B21A4C8900012089B2E07301F05CFEED
:101F30002389A9B25B1A9BB215482381134A93895E
:101F40009BB202EB8303B3F8103140F8083C93894D
:101F50009BB202EB8303B3F8123140F8043C93893F
:101F600001339BB2938193893F2B84BF00239381DC
:101F70004A1E084B92B20830D318B0EBC30FDDD124
:101F8000012001F099FDFFF775FC70BD8805002068
:101F900088610040320C0008034B002210B5DA7350
:101FA000FFF7AAFF10BDC0468805002010B5FFF757
:101FB00029FFFFF7A1FF002010BDC04670B5154CEA
:101FC0000546A37B1BB323893E2B06D9FFF794FF5D
:101FD000A37BE3B16FF001001BE0FFF739FC6389DD
:101FE0009BB204EB830201339BB263816389C2F825
:101FF00010513F2B88BF0023064A88BF6381138995
:1020000001339BB21381FFF735FC002001E04FF054
:10201000FF3070BD8805002010B5044609E00C496A
:1020200042F20F73B1F810229A420FD8531CA1F854
:1020300010322046FFF7C2FF10F1020FEFD0002848
:1020400004DB034B4FF00002A3F8102210BDC04682
:1020500088050020012801D9002003E0024B1B184D
:102060009B7A18467047C0469C070020012870B52F
:1020700004460E46154602D94FF0FF303FE0204B94
:102080001B189B7AD3183F2B02DD6FF0010036E05E
:10209000FFF7DEFB00202CE0194B19190A7B03EB3C
:1020A00084139B18325C9A730B7B0133DBB20B7386
:1020B0000B7B3F2B01D900230B73114B1B199A7A11
:1020C0000132D2B29A729B7A012B11D114B1012C38
:1020D00009D101E00B4A00E00B4A93899BB243F01F
:1020E0008003938104E0FFF7C5FB6FF0020006E078
:1020F000013083B2AB42CFD3FFF7BCFB002070BDF1
:102100009C070020003801400048004070B506469A
:102110000D461446304629462246FFF7A7FF10F128
:10212000020FF7D070BDC046012870B5054602D930
:102130004FF0FF3024E0134E3418A37A13B96FF038
:1021400001001DE0FFF784FB94F88E2006EB851359
:102150009B189E7B94F88E300133DBB284F88E306E
:1021600094F88E303F2B02D9002384F88E30054A34
:102170005219937A013BDBB29372FFF77BFB304637
:1021800070BDC0469C07002001282DE9F04105469E
:102190000F4602D94FF0FF3026E0144E3418237A50
:1021A0003F2B02D96FF001001EE0FFF751FB94F8BE
:1021B000902006EB85139B1883F8927094F890306A
:1021C0000133DBB284F8903094F890303F2B02D981
:1021D000002384F89030054A5219137A0133DBB298
:1021E0001372FFF747FB0020BDE8F0819C07002039
:1021F000154A10B5138813F0200F0AD093882120B8
:10220000DCB22146FEF73CFC18B901302146FFF74D
:10221000BBFF0D4C238813F0800F13D00120FFF774
:1022200019FF002808DD0120FFF77EFF0028B4BF5A
:10223000FF2383B2A38005E0A38923F080031B045E
:102240001B0CA38110BDC04600480040144A10B5C5
:10225000138813F0200F09D093882020DCB2214688
:10226000FEF70EFC10B92146FFF78EFF0C4C2388B9
:1022700013F0800F13D00020FFF7ECFE002808DDDC
:102280000020FFF751FF0028B4BFFF2383B2A380D3
:1022900005E0A38923F080031B041B0CA38110BD60
:1022A00000380140012870B5054602D94FF0FF30D3
:1022B00025E0134E3418237A13B96FF001001EE0A5
:1022C000FFF7C6FA94F8122106EB85139B1893F8D2
:1022D000926094F812310133DBB284F8123194F831
:1022E00012313F2B02D9002384F81231044A5219CB
:1022F000137A013BDBB21372FFF7BCFA304670BDB4
:102300009C07002030B5012885B004460D4602D94F
:102310004FF0FF301EE04FF00003ADF80430ADF891
:102320000630ADF80830ADF80C304FF00C03ADF8C6
:102330000A30009120B1012804D06FF0010009E0BB
:10234000054800E00548694600F04CFB044B0020BE
:1023500043F8245005B030BD00380140004800402B
:102360009C070020F7B5074610B14FF0FF3093E00F
:1023700001AC0121494800F03DFA204600F032FA54
:1023800002231C2521468DF8063045484FF4007382
:10239000ADF804308DF8075000F0D0F94FF48063A9
:1023A00021464048ADF804308DF8075000F0C6F9DA
:1023B000482321468DF8073039484FF48063ADF843
:1023C000043000F0BBF94FF4006321463548ADF806
:1023D000043000F0B3F94FF48040012100F0BCFC60
:1023E0004FF4C020012100F0C5FC47F61221384609
:1023F000FFF788FF47F612210120FFF783FF012432
:102400002523042668468DF800308DF801608DF88C
:1024100002708DF8034000F07BFD40F2255122460A
:10242000214800F0C5FA272368468DF800308DF862
:1024300001608DF802708DF8034000F069FD1B48C3
:1024400040F22551224600F0B3FA194A1648177295
:10245000137A214682F8903092F890306D4682F8D7
:1024600012319772937A1373137B82F88E305772FE
:10247000537A82F8913092F8913082F81331D77202
:10248000D37A5373537B82F88F3000F083FA074876
:10249000214600F07FFA3846FEBDC0461000140009
:1024A0000008014000100140003801400048004091
:1024B0009C07002020B10368197003680133036092
:1024C0007047C0462DE9F047151E804689460FDD4E
:1024D000002200E0013219F802100029FAD1AA42C4
:1024E000ACBF0D46AD1A13F0020F01D0302700E04B
:1024F000202713F0010301D0002609E01E4605E065
:1025000040463946FFF7D6FF0136013D002DF7DC86
:10251000344603E04046FFF7CDFF0134C6EB090324
:10252000195D0029F6D105E040463946FFF7C2FFA4
:102530000134013D002DF7DC2046BDE8F087C046A0
:102540002DE9FF410A9D964680460B9FDDF830C07D
:102550000A4651B930238DF804308DF805102A460B
:1025600001A93B46FFF7AEFF38E03BB1BEF10A0FD1
:1025700004D1002902DA4A42012400E0002404A820
:10258000002300F8013D0EE0B2FBFEF30EFB132129
:102590000929C4BFACF13A03C91801F1300300F8AE
:1025A000013DB2FBFEF20646002AEDD17CB14DB1F1
:1025B00017F0020F06D040462D21FFF77BFF013DAB
:1025C000012404E02D23461E00F8013C002440466F
:1025D00031462A463B46FFF775FF001904B0BDE8B7
:1025E000F081C0462DE9F04188B080460F46059243
:1025F00000257AE0252B72D117F8013F002B77D008
:10260000252B6CD02D2B01D0002605E001370126AB
:1026100002E0013746F002063B78302BF9D0002467
:1026200003E00A2303FB041401373A78A2F13001D6
:10263000CBB2092BF5D9732A09D1059B324953F83E
:10264000042B40460593002A18BF114642E0642A35
:102650000ED1059B00941A1D0592612202920196EB
:10266000196840460A220123FFF76AFF2D183BE054
:10267000782A06D1059B00941A1D059201966122C5
:1026800007E0582A0AD1059B00941A1D059201966D
:10269000412202924046196810220BE0752A0BD1A4
:1026A000059B00941A1D05926122029201961968F9
:1026B00040460A220023D7E7632A15D1059A4046EF
:1026C000131D059313680DF11E018DF81E300023B4
:1026D0008DF81F3022463346FFF7F4FEC6E740462A
:1026E0003978FFF7E7FE013501373B78002B81D1C0
:1026F000B8F1000F03D0D8F800200023137028464B
:1027000008B0BDE8F081C0465E3F000807B502ABE7
:1027100043F8040D1846FFF765FF0EBD0EB40FB564
:1027200005AA52F8041B019001A80392FFF75AFF73
:1027300004B05DF804EB03B07047C046F0B5CD7847
:102740000E8815F0100F18BF8B7805F00F0718BF13
:102750001F4316F0FF0F20D004684FF0000C012338
:1027600003FA0CF303EA0601994210D14FEA8C02F6
:102770000F23934017FA02F224EA0303282D43EAB9
:10278000020401D1416102E0482D08BF01610CF152
:10279000010CBCF1080FE2D10460FF2E21D944687E
:1027A0004FF0000C01230CF10802934003EA0601EC
:1027B000994210D14FEA8C020F23934017FA02F28C
:1027C00024EA0303282D43EA020401D1416102E017
:1027D000482D08BF01610CF1010CBCF1080FE1D1DB
:1027E0004460F0BD4FF0FF33038002238370DB1899
:1027F000C37070470028B4BF1A4B1A4B10B50C4673
:10280000B4BFD969596800F440134FEA004CB3F5DE
:10281000401F4FEA1C4C07D1124A21F070615368E7
:1028200023F0706353600FE010F4801F04D0C0F3F6
:1028300003420323934003E0430D1B010CFA03F30F
:1028400021EA030343F0706124B1430D1B010CFA2C
:1028500003F319430028B5BF024B024BD9615960FD
:1028600010BDC04600000140034B1A6802F0380258
:10287000104318607047C04600200240044A1368A5
:1028800023F0100313601368184310607047C046AC
:1028900000200240034B044A5A6002F188325A6019
:1028A0007047C0460020024023016745024A136971
:1028B00043F080031361704700200240014BD86051
:1028C0007047C04600200240094AD36813F0010F48
:1028D00001D001200BE0D36813F0040F01D00220D7
:1028E00005E0D36813F0100F14BF032004207047D5
:1028F0000020024010B50446FFF7E6FF02E0FFF7B4
:10290000E3FF013C012802D1002CF8D100E004B91A
:10291000052010BD70B506464FF400500D46FFF778
:10292000E9FF042811D1094C4FF40050236943F00A
:10293000010323613580FFF7DDFF052805D02269FB
:1029400041F6FE7302EA0303236170BD00200240DA
:1029500070B505464FF43020FFF7CCFF042815D1A1
:102960000B4C4FF43020236943F00203236165616F
:10297000236943F040032361FFF7BCFF052805D01E
:10298000226941F6FD7302EA0303236170BDC0466C
:102990000020024021B183899BB243F4005304E03C
:1029A000838923F400531B041B0C83817047C046AA
:1029B000C1F3421C012301F01F0113FA01F19C45F0
:1029C00001D10C3005E0BCF1020F01D1103000E064
:1029D000143012B103680B4302E0036823EA0103D9
:1029E00003607047038ACA8823F440531B041B0CFE
:1029F0001343038282890B8930B50D46898822F4FE
:102A0000B0520B43698922F00C020B431204120CE2
:102A10009BB213438381838AAA8923F440731B04E6
:102A20001B0C87B013430446838201A800F048F9C9
:102A3000184B29689C42A38908BF04981BB218BF91
:102A40000398002B03DA192343434A0002E01923B9
:102A500043438A00B3FBF2F16420B1FBF0F31A01A7
:102A6000130900FB1311A3891BB2002B06DACB005C
:102A70003233B3FBF0F303F0070305E00B0132330D
:102A8000B3FBF0F303F00F0343EA02018BB223819F
:102A900007B030BD0038014003889AB2244B9842F9
:102AA00012D003F5006398420ED0B0F1804F0BD0E6
:102AB000A3F59833984207D003F58063984203D07A
:102AC00003F58063984206D14FF68F7302EA030341
:102AD0004A8843EA0202174B98420AD003F5806302
:102AE000984206D04FF6FF4302EA0303CA8843EA3E
:102AF000020202808B8883850B8803850C4B9842E9
:102B00000FD003F5006398420BD003F54063984261
:102B100007D003F58063984203D003F580639842A1
:102B200001D10B7A03864FF0010383827047C046C0
:102B3000002C01400010004021B103889BB243F0FB
:102B4000010304E0038823F001031B041B0C038032
:102B50007047C04622B183899BB241EA030303E078
:102B600083899BB223EA010383817047028A8389A8
:102B700011EA02009BB203D019420CBF00200120D1
:102B80007047C046C94389B2018270470D4A136835
:102B900043F00103136051680B4B01EA03035360D8
:102BA000136823F0847323F480331360136823F4D1
:102BB00080231360536823F4FE0353604FF41F0314
:102BC00093607047001002400000FFF80C4AB0F517
:102BD000803F136823F480331360136823F4802349
:102BE000136003D0B0F5802F08D103E0136843F4DD
:102BF000803302E0136843F4A02313607047C0469B
:102C000000100240034B5A6822F47C121043084320
:102C10005860704700100240014B18607047C04672
:102C200060004242034B5A6822F00302104358608E
:102C30007047C04600100240024B586800F00C007C
:102C40007047C04600100240034B5A6822F0F00261
:102C5000104358607047C04600100240034B5A684A
:102C600022F4E062104358607047C04600100240F2
:102C7000034A536823F4605343EAC0035360704728
:102C800000100240014B18607047C046D800424215
:102C9000034B5A6822F44042104358607047C046C4
:102CA00000100240024B1A6A104318627047C04677
:102CB00000100240014B18607047C0463C0442427D
:102CC00010B504461E48436803F00C03042B02D0E1
:102CD000082B14D101E01B4B12E043684268C3F398
:102CE0008343991C12F4803F01D1174B05E04368E0
:102CF00013F4003F14BF154B124B4B4300E0144B31
:102D00000F48236043681349C3F30313CB5C226865
:102D1000DA4062604368C3F30223CB5C32FA03F308
:102D2000A3604368C3F3C223CB5CDA40E26043682C
:102D3000C3F38133C9180B7CB2FBF3F2226110BDDF
:102D400000100240001BB70000093D00808D5B00B1
:102D500000127A003C00002021B1054A936940EA44
:102D6000030303E0024A936923EA00039361704777
:102D70000010024021B1054AD36940EA030303E091
:102D8000024AD36923EA0003D3617047001002406E
:102D900021B1054AD36840EA030303E0024AD3683D
:102DA00023EA0003D36070470010024021B1054AB6
:102DB000136940EA030303E0024A136923EA0003AC
:102DC0001361704700100240014B18607047C04605
:102DD000400442424309012B02D1084B1B6805E025
:102DE000022B0BBF054B054B1B6A5B6A00F01F00F3
:102DF00033FA00F000F001007047C04600100240B6
:102E000007B5002301933120FFF7E4FF019B013355
:102E10000193019BB3F5A06F01D00028F3D03120BE
:102E2000FFF7D8FF003818BF01200EBD29B1064AB0
:102E300013889BB240EA030304E0034A13889BB261
:102E400023EA00031380704700280040034A938858
:102E50009BB243F0100393807047C04600280040A7
:102E6000034A938823F010031B041B0C93807047C4
:102E70000028004010B50446FFF7E8FF034A230C82
:102E8000A4B213839483FFF7EBFF10BD002800402A
:102E900010B50446FFF7DAFF044AC4F30343A4B2B3
:102EA00013819481FFF7DCFF10BDC046002800406D
:102EB000024B9B8813F0200FFAD070470028004087
:102EC000064A938823F008031B041B0C9380034BD2
:102ED0009B8813F0080FFAD07047C04600280040C6
:102EE000012010B5FFF770FF0020FFF76DFF10BD48
:102EF000014B18607047C04620000E4240F0BE6093
:102F0000024B40F42020D8607047C04600ED00E03E
:102F1000C37890F800C0D3B1124B4178DA68D2433D
:102F2000C2F30222C2F1040399400F23D3408278F6
:102F300013400B430C4A1B01DBB2624482F800339E
:102F40000CF01F0201234FEA5C11934006E00CF0E5
:102F50001F02012393404FEA5C112031024A42F8DC
:102F60002130704700ED00E000E100E021F0604119
:102F700021F07F01014B01439960704700ED00E0B3
:102F8000042804D1054A136843F0040303E0034A0C
:102F9000136823F0040313607047C04610E000E09C
:102FA00010B5074C20B923684FF00101198206E0E3
:102FB000044B1B681B689847236803F10A0010BD87
:102FC000BC080020B808002010B50A4B1A680A4B4C
:102FD000D1785B788B420AD3937843B9948834B91B
:102FE000064B91721B685B689847204600E0022000
:102FF00010BDC046BC080020C0080020B808002052
:1030000010B5074C20B923684FF00101198206E082
:10301000044B1B689B689847236803F10C0010BDA4
:10302000BC080020B808002070B50E4B0E4D1B6880
:103030002A689B695079D17898472A68937A7BB13E
:1030400070B9137963B9947854B9084B1B68DB687D
:1030500098472B6820465A79DA72DA781A7300E0BA
:10306000022070BDB4080020BC080020B808002071
:1030700010B5284B20B91B684FF00201198248E0B7
:1030800025484FF0000202801A68137813F07F037E
:1030900015D1527A037812F0200F14BF43F00203C7
:1030A00023F0020312F0400F1B4A037015BF137880
:1030B000137843F0010323F00103137024E0012B84
:1030C00027D0022B01D0002023E0537903F00F0218
:1030D00013F0800F4FEA820208D002F1804303F51B
:1030E000B8431B6803F03003102B08E002F1804363
:1030F00003F5B8431B6803F44053B3F5805F03D175
:10310000037843F001030370044B1B681B69984765
:10311000014810BDBC080020C2080020B8080020EB
:1031200010B5254B1A68507920F0800110F0800FFF
:103130004FEA810307D003F1804303F5B8431B68CE
:1031400003F0300406E003F1804303F5B8431B6845
:1031500003F44054194B1B7899422BD253884BBB34
:1031600044B3937A33B310F0800F4FEA81030BD04E
:1031700003F1804303F5B843196848F6BF7201EACA
:10318000020282F010020AE003F1804303F5B84323
:1031900019684BF68F7201EA020282F4805242F4FF
:1031A000004242F080021A60054B1B689B699847F9
:1031B000002000E0022010BDBC080020C008002054
:1031C000B808002010B5064B1A68537A43F0200364
:1031D0005372044B1B68DB699847002010BDC04642
:1031E000BC080020B8080020064B10B51A680C4631
:1031F000518A18B9A3885B1A138201E02368581812
:1032000010BDC046BC08002030B5104B05461C78E8
:103210004FF0000C13E05FFA8CF2910001F1804155
:1032200001F5B841086842F4004240F60F7342F0DD
:10323000800200EA03031A430A600CF1010CA44562
:10324000E9D3034B45F080021A6030BDC00800206E
:103250004C5C00407047C04610B50C4B00201B680A
:1032600093F82C1000F0CEFC094B1B68187A082844
:1032700007D1084B4FF480521A80074B4FF01002D1
:103280001A80092814BF0020012010BDB4080020B6
:10329000BC080020C4080020C608002070B52F4BD1
:1032A0001E68337A022B52D0042B50D0032B01D04E
:1032B000052B46D1B269338AAAB1A3B1B48A9C4224
:1032C00028BF1C4620469047338A05461B1B338285
:1032D000738A0020E318738200F078FC22460146CE
:1032E000284600F09DFB338A5BB11D4B4FF44052E2
:1032F00000201A80014600F077FC1A4B4FF0300294
:103300001A80318AB38A8B4203D8144B1A6803237C
:1033100003E0124A19B11268052313720DE0126816
:1033200006231372104B1A68104B92B2D3185B002D
:1033300019600C4B4FF030021A80084B1B681A7A48
:1033400006E0072B03D10A4B1B68DB68984708226D
:10335000024B1B681A72FFF77FFF70BDBC0800208C
:10336000C4080020C6080020505C00400230002045
:10337000B4080020254B2DE9F0411E68318A307ACF
:10338000C1B9042816D1224D224C2B78012B0CD127
:10339000214B29701A68214B92B2D3185B004FF071
:1033A00030021960228007462AE04FF01003238084
:1033B000072725E0B48AB369A14294BF04270227F6
:1033C0008C4228BF0C46204698470546002000F056
:1033D000EFFB22460146284600F008FB214600206C
:1033E00000F002FC338A4FF030021B1B3382738AD9
:1033F000E418084B74821A80094B4FF440521A802B
:10340000024B1B681F72BDE8F081C046BC0800205B
:10341000B0080020C6080020505C004002300020A8
:10342000C408002010B5144B1A68137A022B01D07F
:10343000042B05D1FFF79EFF0F4B1B681A7A14E08F
:10344000062B11D15378052B0AD1137813F07F0F77
:1034500006D1D078FFF7D8FE084B1B681B6A984747
:10346000074B1B689B6898470822034B1B681A721E
:10347000FFF7F2FE10BDC046BC080020B8080020CF
:10348000B408002010B5394B19680B7813F07F0091
:1034900004D14B7A23F020034B7265E0022862D1FD
:1034A0004B88002B5FD10B79002B5CD14C7924F039
:1034B000800014F0800F4FEA800207D002F18043B1
:1034C00003F5B8431B6803F0300206E002F18043C5
:1034D00003F5B8431B6803F44052254B1B78984210
:1034E00041D2002A3FD08B7A002B3CD014F0800FC1
:1034F0004FEA800211D002F1804303F5B8431B6804
:1035000003F03003102B28D1C4B2204600F01CFB7E
:103510002046302100F0B6FA1FE002F1804404F5A5
:10352000B844236803F44053B3F5805F15D130B934
:10353000104B1B6893F82C1000F064FB01E000F0C6
:10354000EFFA22684BF68F7302EA030383F44053C9
:1035500043F4004343F080032360074B1B685B691F
:103560009847002000E0022010BDC046BC080020A3
:10357000C0080020B4080020B8080020874BF7B529
:103580001A68874F874B92B2D3183D685B001C685E
:103590002B7A092B17D0A4B204F1005404F540543F
:1035A0006400237804F10A062B7063786B70A0889E
:1035B00000F058FB688020893D6800F053FBA8802C
:1035C0003B687688DE80764D01232A68D1881372A5
:1035D0005478002962D1137813F07F032ED1092C7F
:1035E00002D1FFF7F1FC3BE0052C0DD192F903303D
:1035F000002B4EDB9378002B4BD19388002B48D1C6
:10360000937A002B37D044E0032C0BD1D378012BD5
:1036100027D193882BBB537A13F0200F21D0FFF7CB
:10362000D1FD1DE0012C1CD1D378012B19D1938839
:10363000BBB9537A13F0200F13D00AE0012B04D149
:103640000B2C0ED1FFF7F0FC0AE0022B09D1012C64
:1036500002D1FFF717FF03E0032C02D1FFF760FD53
:1036600048B1514B20461B685B699847032801D13C
:1036700009220FE068B9494B4FF030011A684B4BF3
:1036800092B2D3185B0000221A60494B06321980AF
:1036900000E00822424B1B681A72E6E0062C18D1A3
:1036A000137813F07F0F40F098809378012B03D1AB
:1036B0003D4B1B68DA6985E0022B03D13A4B1B684E
:1036C0001A6A7FE0032B40F08880374B1B685A6AE8
:1036D00078E0002C41D15388002B7ED102297CD187
:1036E0001179002979D1137813F07F0303D19388DE
:1036F000002B72D12FE0012B0BD12B4B50791B6883
:103700009B699847002868D12B689B7A002B64D06E
:1037100021E0022B61D1527902F00F0012F0800FEC
:103720004FEA800307D003F1804303F5B8431B68D9
:1037300003F0300106E003F1804303F5B8431B6852
:1037400003F440511B4B1B78984246D212F0700F85
:1037500043D1002941D0184A35E0082C05D113780F
:1037600013F07F0F39D1154A2DE00A2C35D113788B
:1037700003F07F03012B30D1937A002B2DD0538897
:103780005BBB13794BBB012927D1074B50791B68D1
:1037900001399B69984700BB094A14E0505C00401E
:1037A000BC08002004300020B408002002300020B3
:1037B000C6080020C008002071300008A12F0008B2
:1037C000013000084AB12A4B4FF000011B6800206D
:1037D00059829A61904700200CE0264B244C1A68CD
:1037E0002368126958789047032803D12268092377
:1037F00013723AE01E4B1C684FF6FF73218A994200
:1038000001D1092303E0022800D011B90823237253
:103810002BE094F90030002B21DAE2880192019B21
:10382000994202D9019B238211E091420FD2114BA0
:103830001B6893F82C20914201D2002205E091FBF5
:10384000F2F302FB131313B901220B4B1A70094B4D
:103850001B6893F82C30A382FFF78CFD05E003234F
:103860002372064B4FF440521A80FFF7F5FCFEBD61
:10387000BC080020B4080020B0080020C4080020C4
:1038800037B54FF00003ADF8063098E011F00F05A2
:103890006CD14F4C4F4D23684F4A9BB22B802B88E5
:1038A00003F0300313802B8803F440532B802268ED
:1038B0004BF6BF7302EA030342F22002534043F483
:1038C000004343F0800311F0100F236008D12268F9
:1038D00048F60F7302EA03032360FFF7A3FD1EE01F
:1038E00023689BB2ADF80630BDF8063013F4006FC4
:1038F00008D0226840F68F7302EA03032360FFF7C3
:103900003DFE0CE0BDF806301BB2002B57DA2268F2
:1039100040F68F7302EA03032360FFF7BFFC2368BE
:103920004BF6BF7103EA01012B88294A13F4805F2B
:10393000284B18BF81F480511B8813F4005F264B7D
:1039400018BF81F400511B8813F0100F224B18BFD1
:1039500081F010011B8813F0200F204B18BF81F05D
:10396000200141EA03039BB213602FE0AB0003F197
:10397000804404F5B84423689BB2ADF80630BDF826
:1039800006301BB2002B0ADA226840F68F7302EA77
:1039900003032360124B6A1E53F822309847BDF888
:1039A000063013F0800F0AD0226848F60F7302EA3F
:1039B000030323600B4B6A1E53F8223098470A4BCF
:1039C0001B6899B211F4004F7FF460AF3EBDC04652
:1039D000005C0040C4080020C60800208080FFFF73
:1039E0002000002004000020445C004001F1005150
:1039F00001F54051013210B54FF0000C4C00510858
:103A00000BE000EB0C035A7810F80C30013943EA54
:103A1000022324F81C300CF1020C0029F1D110BD56
:103A200001F10051013201F5405110B54900520831
:103A3000002304E031F81340013AC4520233002A53
:103A4000F8D110BD4FF6F873024A00EA0303136081
:103A50007047C046505C004010B5054C48F68F13C7
:103A600054F8202002EA03030B4344F8203010BD31
:103A7000005C0040024B53F8200000F4C060704727
:103A8000005C0040800000F1804000F5B840036811
:103A900048F6BF7203EA020211F0100F18BF82F05D
:103AA000100211F0200F18BF82F0200242F40043F0
:103AB00043F0800303607047074948F6BF7351F82D
:103AC000202002EA030383F0300343F4004343F071
:103AD000800341F820307047005C004007494BF6F6
:103AE0008F7351F8202002EA030383F4405343F418
:103AF000004343F0800341F820307047005C0040F1
:103B0000064940F60F6351F8202002EA030343F40C
:103B1000004343F0800341F820307047005C0040D0
:103B2000800000F1804000F5B840036813F4804F36
:103B300009D0026840F60F7302EA030343F44043DE
:103B400043F0800303607047800000F1804000F57F
:103B5000B840036813F0400F09D0026840F60F73B5
:103B600002EA030343F4004343F0C00303607047D9
:103B7000064B49081B6849009BB203EBC00303F1E5
:103B8000005303F540535B0019607047505C0040E0
:103B9000054B064A1B6849089BB203EBC0039A1801
:103BA0005200490011607047505C00400430002012
:103BB000054B1B689BB203EBC00303F1005303F5F5
:103BC00040535B0018887047505C0040044B1A68F3
:103BD000044B92B202EBC002D3185B001888704706
:103BE000505C004004300020044B1A68044B92B231
:103BF00002EBC002D3185B0019607047505C0040B4
:103C0000023000200D4B1A680D4B92B2D31803EB13
:103C1000C0035A003E2909D94B0911F01F0F01D1E9
:103C2000013B9BB29B0243F4004305E04B0811F0BB
:103C3000010F18BF01339B0213607047505C0040B6
:103C400006300020054B1A68054B92B202EBC00209
:103C5000D3185B0018688005800D7047505C0040E9
:103C600006300020C3B2000A40EA03207047C04675
:103C70004FF0000C06E011F80C30013A00F80C305F
:103C80000CF1010C002AF6D17047C04600228B5C73
:103C900083540132002BFAD17047C046024600E03F
:103CA00001300378002BFBD1801A704700080140D7
:103CB00020000000000C014000200000000C01402A
:103CC000400000000008014010000000001001400A
:103CD00000800000000C01400010000000100140B6
:103CE00000200000001001400040000000080140DA
:103CF00080000000000C014000800000000C01402A
:103D00002000000000000203030102030303030379
:103D100002020301F000007E3202020202010102EF
:103D2000000101020100000000000000000000008E
:103D3000000000000000000000000000050100007D
:103D400000000000111D0008F9190008FD19000805
:103D5000011A0008051A0008091A0008F11C0008D9
:103D6000D11C0008E51B0008000000004000000016
:103D700055320008691A000855320008553200080B
:103D800055320008553200085532000855320008F7
:103D9000ED190008A43D000865000000093E000878
:103DA00012000000090265000201008032090400CF
:103DB00000000101000209240100010900010109BC
:103DC0000401000201030002072401000141000672
:103DD0002402010100062402020200092403010357
:103DE0000102010009240302040101010009050187
:103DF0000240000000000525010101090581024083
:103E0000000000000525010103120100020200006C
:103E100040C016000400010102030100253038589B
:103E20002000202020002025303258002845525202
:103E30004F523A20737472696E67207061737365B4
:103E40006420746F204D494F5333325F4D494449CC
:103E50005F53656E6444656275674D657373616732
:103E6000652829206973206C6F6E676572207468FD
:103E7000616E20313030206368617273210A004D19
:103E8000494F533332004D4248505F434F52455FD4
:103E900053544D33320053544D3332463130780051
:103EA00025303878003F002564004D494F533332A8
:103EB00020426F6F746C6F61646572002863292003
:103EC0003230303920542E204B6C6F7365005B4DBF
:103ED000494F5333325F4D4944495F535953455815
:103EE0005F436D645F44656275675D20636F6D6DF0
:103EF000616E642068616E646C6572206E6F742000
:103F0000696D706C656D656E7465642062792061A1
:103F100070706C69636174696F6E0A005B4D494F24
:103F20005333325F4D4944495F5265636569766535
:103F30005F48616E646C65725D2054696D656F7574
:103F400074206F6E20706F72742030782530327854
:103F50000A006D696469626F782E6F726700286E5F
:103F6000756C6C29000000001010FF00553200082D
:103F70005532000855320008553200085532000805
:103F800055320008553200085532000855320008F5
:103F900055320008553200085532000855320008E5
:103FA000553200080000000001020304010203046E
:103FB0000607080902040608FFFFFFFFFFFFFFFFD7
:103FC000FFFFFFFFFFFFFFFFFFFFFFFFFFFFFFFF01
:103FD000FFFFFFFFFFFFFFFFFFFFFFFFFFFFFFFFF1
:103FE000FFFFFFFFFFFFFFFFFFFFFFFFFFFFFFFFE1
:103FF000FFFFFFFFFFFFFFFFFFFFFFFFFFFFFFFFD1
:1040000000000120414E00088B4E00085945000871
:104010008B4E00088B4E00088B4E000800000000FD
:10402000000000000000000000000000014B00083C
:104030008B4E000800000000B14B0008ED4B00085B
:104040008B4E00088B4E00088B4E00088B4E0008EC
:104050008B4E00088B4E00088B4E00088B4E0008DC
:104060008B4E00088B4E00088B4E00088B4E0008CC
:10407000717100088B4E0008897100088B4E000892
:104080008B4E00088B4E00088B4E00088B4E0008AC
:104090009D7700088B4E00088B4E00088B4E000861
:1040A0008B4E00088B4E00088B4E00088B4E00088C
:1040B0008D740008B17400088B4E00088B4E000808
:1040C0008B4E0008F5800008B18200088B4E000876
:1040D0008B4E0008F97F0008B58000085580000865
:1040E0008B4E00088B4E00088B4E00088B4E00084C
:1040F0008B4E00088B4E00088B4E00088B4E00083C
:104100008B4E00088B4E0008D57400088B4E0008BB
:104110008B4E00088B4E00088B4E00088B4E00081B
:104120008B4E00088B4E00088B4E00088B4E00080B
:104130008B4E00080000000000000000000000009E
:10414000000000000000000000000000000000006F
:10415000000000000000000000000000000000005F
:10416000000000000000000000000000000000004F
:10417000000000000000000000000000000000003F
:10418000000000000000000000000000000000002F
:10419000000000000000000000000000000000001F
:1041A000000000000000000000000000000000000F
:1041B00000000000000000000000000000000000FF
:1041C00000000000000000000000000000000000EF
:1041D00000000000000000000000000000000000DF
:0441E0005FF8E0F1B3
:1041E40008B54FF0FF3002F0E3FF01F0A1F908BD7C
:1041F4007047000038B50C46C1F3074503F00CF8CE
:10420400C143012002F0F4FF04F00F03092B06D18F
:10421400230E06D0183D05F07F0001210AE0082B8B
:1042240004D0064B04EA0303092B05D1183D05F01D
:104234007F00002100F05CFF38BD00BF0F0000FFCD
:104244007047704710B502F0E7FFC143012002F048
:10425400CFFF002000F0F4FE0446C3B20020014664
:10426400102201F07AFA2146014801F0C1F910BD8B
:10427400D09E00087047704708B500F093FFFFF721
:10428400E0FF08BD13B500F069FA02AC44F8040D70
:104294000121204600F064FB00F060FA019A431FFC
:1042A4009A4238BF019001F059FE024801F0BCFC6B
:1042B400EEE700BFF941000813B500F04FFA02AC75
:1042C40044F8040D0121204600F04AFB00F046FAB0
:1042D400019A431F9A4238BF0190064800F0D2FE6B
:1042E400054801F09DF8054803F035F901F0BDFEDD
:1042F400E8E700BF49420008794200087B42000811
:1043040030B5002085B002F01BF9002003F0F2F86C
:10431400002002F043FF002002F0C0FD002000F066
:1043240003FE002000F076FE002000F0D3FE002003
:1043340000F00AFF002002F065F8002003F008F9FD
:10434400002002F05CF8002003F04EFA002001F097
:104354006BF9002001F050FE002001F053FE002014
:1043640001F0BEF805F058FDFFF73AFF01F020F91F
:104374004FF4FA644FF47A7003F0DEF814F1FF346A
:10438400F8D1032523460D494FF480720C4800955B
:1043940001940294039400F0E7F808494FF4807202
:1043A40023460848009501940294039400F0DCF835
:1043B40000F0A8F9204605B030BD00BFD59E000826
:1043C400BD4200088942000808B5FFF739FF0248DA
:1043D40000F0F4FD08BD00BF7D42000808B5FFF7FA
:1043E40007FFFCE770B500F0C9FB0024642642F225
:1043F40010750134B4FBF6F306FB13430BB901F05B
:10440400ADFD084801F010FCB4FBF5F305FB1343C4
:10441400002BEED102F000FFC143012002F0E8FEC0
:10442400E7E700BFF941000810B5036888B00793B7
:104434004368334C069383680593C3680493036904
:1044440003934369029383690193C36920460093EC
:1044540001F02EFA2B4801F02BFA204601F028FA3D
:104464000799294801F024FA0699284801F020FA0E
:104474000599274801F01CFA0499264801F018FA16
:104484000399254801F014FA0299244801F010FA1E
:104494000199234801F00CFA0099224801F008FA26
:1044A400214B2248196801F003FA214B214819686D
:1044B40001F0FEF9204B2148196801F0F9F9204B6D
:1044C4002048196801F0F4F91F4B2048196801F0DD
:1044D400EFF96FF07F4001F09EF8002001F09FF8A3
:1044E400002000F0BDFF01F023F80020014600F099
:1044F400BDFF174801F04EF8FFF774FF08B010BD78
:10450400319F0008459F0008599F0008649F0008D8
:104514006F9F00087A9F0008859F0008919F0008FC
:104524009C9F0008A79F000838ED00E0B39F000897
:1045340028ED00E0C09F00082CED00E0CD9F0008AE
:1045440030ED00E0DA9F00083CED00E0E79F000852
:10455400F49F00081EF0040F0CBFEFF30880EFF384
:104564000980FFF761BF7047F0B585B003930C9BDA
:104574000290482000930E4614460A9F00F0D4FB94
:10458400009B0546002800F09B801BB9A00000F0AA
:10459400CBFB03462B631BB9284600F08FFB8FE04F
:1045A400A200A521184605F066FC2B6B013C03EB29
:1045B400840323F007033146102205F134000093ED
:1045C400002405F06FFC2E1D042F34BF3A4604224C
:1045D400EA626A6485F843403046019200F043FA87
:1045E40005F1180000F03FFA019A009BC2F10502A0
:1045F4001846AA610299039A2D616D6200F06DFA62
:10460400286000F0BBFA314B1A6801321A601B684B
:10461400012B26D12E4B2F4A1D60142303FB0420AB
:1046240001340192009300F013FA052C019A009BC7
:10463400F4D1294B294C1846009300F009FA20467E
:1046440000F006FA264800F003FA264800F000FAC3
:10465400254800F0FDF9009B244A1360244B1C609C
:1046640008E0244B1B682BB9194B1A68D26ABA426A
:1046740098BF1D60204AEB6A11688B4288BF1360A3
:104684001E4A1168013111601D4A11688B4288BFAE
:104694001360104A142000FB0320314600F0E6F9B1
:1046A40000F078FA0B9B03B11D60124B1B6853B1E9
:1046B400074B1B68DB6ABB4205D200F057FA02E0E5
:1046C4004FF0FF3000E0012005B0F0BD50010020A4
:1046D400FC00002094000020240100203801002068
:1046E400000100206C0000208000002060000020F9
:1046F4001801002064000020540100202001002043
:104704001C0100201FB5002423460C480C494FF41B
:1047140080720094019402940394FFF725FF01280A
:10472400034609D14FF0BF0080F31188054A136096
:10473400054B1C6000F0FAF91FBD00BFFD480008DE
:1047440005A000086400002014010020024B1A6830
:1047540001321A60704700BFF800002010B500F065
:104764000DFA034B1C6800F015FA204610BD00BF7B
:1047740014010020264BF7B51B68002B3CD1254BB8
:104784001A6801321A601B68002B28D1224A234B75
:104794001168186810601960214B1A6801321A6098
:1047A4001DE039685A6891422CD31A1D10460192B3
:1047B400009300F082F9009B9A6A22B103F1180079
:1047C40000F07BF9009BD86A23680199984288BF5E
:1047D4002060142303FB006000F048F903E00E4D51
:1047E4000C4F104C104E2B681B685BB12B68DB68B8
:1047F400DB68002BD5D105E00C4B1A6801321A6036
:10480400FFF7E2FD094B1B680BB9FFF7DDFDFEBDA9
:10481400F80000201401002060000020180100208E
:104824005C0000201C01002094000020580000209F
:10483400F7B500F0A3F9284B1A68013A1A601D680D
:10484400002D44D1254B1C68002C41D0244F254E0B
:104854001BE004F1180000F030F9211D0846019115
:1048640000F02BF9E06A3368019998421E4B88BF27
:104874003060142202FB003000F0F8F81B4A136881
:10488400E26ADB6A9A4228BF01253B681BB1FB68D8
:10489400DC68002CDDD1164C23682BB908E0FFF747
:1048A40069FF2368013B23602368002BF7D107E0ED
:1048B400012D05D00F4A1268012A18BF1C4607D1E2
:1048C4000C4B00221A6000F051F9012400E000248E
:1048D40000F060F92046FEBDF800002050010020E1
:1048E400000100201C01002094000020FC00002096
:1048F400580000204C010020F8B5154E154D164FF8
:104904003368E3B1FFF722FF2C68FFF791FFB4B1DE
:1049140000F034F92C680CB1EB68DC68201D00F061
:10492400CCF83B68013B3B603368013B336000F0EB
:1049340031F9206B00F0C2F9204600F0BFF9074AB4
:104944001368012B01D900F011F9FFF747FDD7E7F0
:10495400680000206C00002050010020940000201A
:1049640038B50C460546FFF7F1FE174A2B68116867
:10497400E418994202D29C4208D201E09C4207D337
:1049840013689C4294BF0023012302E0002300E04B
:1049940001232C608BB10D4D2868043000F08DF894
:1049A4002B685C60084B1B689C4234BF084B094B66
:1049B40018682968043100F066F8FFF739FF08B970
:1049C40000F0D4F838BD00BF14010020FC00002022
:1049D4001801002060000020184B10B51B6833B18B
:1049E4000122174B28E018680138186002E0154BC3
:1049F40015491422D3F800C0134802FB0CFC51F8EB
:104A04000C40002CEFD00F4B4FF0140C19680CFB2A
:104A140001FC00EB0C035A680CF1080C526860446A
:104A240082425A6004BF52685A60074B142202FB48
:104A340001314B68DA68054B1A6010BDF80000209C
:104A44004C0100201C01002094000020FC000020E8
:104A540000F108034FF0FF3282604360C3600361DA
:104A640000230360704700230361704743685A685A
:104A74008B604A605A6891605960036841600133F1
:104A84000861036070470A68B2F1FF3F0CBF036915
:104A940000F1080301D106E05B68D3F804C0DCF838
:104AA40000C09445F8D95A68086191604A60596019
:104AB4008B600368013303607047436882689A60BF
:104AC4008268536003695968814208BF5A600022B2
:104AD40002611A68013A1A607047031F4FF0807C24
:104AE40040F804CC181F43F8041C002140F8041CAF
:104AF40040F8182CA3F13C0070470000064B1968DD
:104B04000868B0E8F00F80F309884FF0000080F3E4
:104B140011884EF00D0E7047FC000020024800681A
:104B2400006880F3088800DF08ED00E00B4B10B547
:104B34001A68002442F47F021A601A6842F07F4225
:104B44001A60074A074B1A600722043B1A60064B97
:104B54001C60FFF7E3FF204610BD00BF20ED00E01E
:104B64003F19010014E000E000000020024B4FF068
:104B740080521A60704700BF04ED00E04FF0BF00A0
:104B840080F31188024B1A6801321A60704700BF23
:104B940000000020044A1368013B13601BB94FF066
:104BA400000080F31188704700000020EFF30980B3
:104BB4000C4B1A6820E9F00F10602DE908404FF003
:104BC400BF0080F31188FFF707FF4FF0000080F368
:104BD4001188BDE8084019680868B0E8F00F80F350
:104BE40009887047FC00002008B5074B4FF080523D
:104BF4001A604FF0BF0080F31188FFF7BBFD4FF040
:104C0400000080F3118808BD04ED00E0F0B50C2429
:104C140004FB00FC09180B4B04FB01F533F80C6092
:104C24005F1926F400465E53788033F80C0089B28D
:104C34004004400C04FB0034618042EA010123F883
:104C44000C10F0BD6C0500200C2110B548430A4B34
:104C54001A18B2F806C0948801FB0C3CACF8044066
:104C6400B2F804C0D28801FB0C31CA801A5A22F46B
:104C740000421A5210BD00BF6C050020F8B50C2587
:104C840005FB00F60C4C0746A05B05FB00F3E35E56
:104C9400002B0FDAFFF7D8FFA35B6B43E35A5B04E7
:104CA4005B0C05FB03435F80A35B5D43635B23F401
:104CB4000043A353F8BD00BF6C05002070B5064641
:104CC40000282ED0174C0C25361BFFF73FFDB6FBF2
:104CD400F5F6B6B23046FFF7D1FF05FB06F3E2184E
:104CE40050886843215E00290BDAE15A6FEA41419A
:104CF4006FEA51412152E35A528805FB0344628012
:104D04000DE0A18805FB014591800021EE80A6807D
:104D1400D180E25A6FEA42426FEA5242E252FFF70E
:104D240087FD70BD6C050020F7B5064600287FD0CE
:104D3400FFF70CFD082E07D9A6F109010C23B1FBDE
:104D4400F3F1023189B200E001213A4847F6FF73DA
:104D54008488002522464FF00C0E18E030F80C50E1
:104D64006D04C4EB5545ADB28D4234BF4FF0000C19
:104D74004FF0010C9D422CBF4FF0000C0CF0010CC5
:104D8400BCF1000F18BF224618BF2B4634460EFB59
:104D940004FC00EB0C06B688002EDFD147F6FF704A
:104DA400834218BF1D4618BF14460C226243214B90
:104DB4009A5A5204560C82B18D4203D12046FFF711
:104DC40043FF2EE06D1AADB2204629464FF400424F
:104DD4002C19FFF71BFFA4B223E06218B2F5557F2C
:104DE40006DB2246144800F063FDFFF721FD1FE0B7
:104DF4001CB901221A809A8001340C2202FB04F3AC
:104E04000C4E6518F118C888AFB202FB006002FBB3
:104E1400056587802846019305F022F8019B6C8084
:104E2400F752FFF705FD034B0C2606FB0436043648
:104E34003046FEBD6C05002009A10008684620F03C
:104E440007018D4601B50A4A0A4B0B4903E052F8A3
:104E5400040B43F8040B8B42F9D3084B0849002296
:104E640001E043F8042B8B42FBD3FFF749FAFEE73A
:104E7400A8A30008000000205800002058000020CB
:104E8400E03000207047FEE738B5204B01240021B4
:104E94001C700A46204601F0DFFC204602F04CFB61
:104EA40000212246204601F0D7FC194819491A4A24
:104EB4000023C45C11F803C0D55C85EA0C0C44EAF9
:104EC4000C0C00F803C012F803C001F803C001334E
:104ED400102BEED1114B1B6803B19847104B1B7874
:104EE4009BB1104B1A7882B1013A1A700949002318
:104EF400074A184611F803C0D45C84EA0C0C01F884
:104F040003C0D0540133102BF4D138BD5D0100200F
:104F1400682D0020982D0020882D002058010020A5
:104F24005C0100205E01002038B550BB164B174DC4
:104F3400DFF85CE0DFF85CC0174918600346FF2225
:104F44002B540EF800200CF800200B5401300024E0
:104F54001028F4D101200246214601F07DFC0321F2
:104F6400012001F0C9FB05220120032101F012FFF9
:104F74000A4B01221A700A4B20461C70094B1C7004
:104F840001E04FF0FF3038BD58010020782D00209B
:104F9400982D0020882D0020682D00205D01002020
:104FA4005C0100205E010020024B00201A78024BB5
:104FB4001A7070475C0100205E01002013B5104B8D
:104FC4001A78D2B100241C700E4B21461860224678
:104FD400012001F041FC012002F0AEFA012021463B
:104FE400024601F039FC084B012000930749084AA6
:104FF400102302F02BF8204601E06FF001001CBDE5
:105004005D010020580100208D4E0008782D0020FD
:10501400882D002060B9DFF820C0084AFF2103462C
:105024000CF80010135401301028F9D1002001E0CD
:105034004FF0FF30704700BF982D0020682D0020EE
:105044000F2896BF024B4FF0FF30185C704700BF2B
:10505400982D00200F2870B504460E460CD801F098
:10506400FFFA074B1D5D1A5D06EA050522EA0606EE
:105074001E5501F00BFB00E00025284670BD00BF63
:10508400682D0020F7B506464FF0FF30FEB100242E
:105094002046FF21FFF7DEFF0746A0B10025E3000D
:1050A40057FA05F212F0010F0AD0094AE818115D07
:1050B4000193294101F00101B047FFF775FF019BFE
:1050C4000135082DECD10134102CE1D10020FEBDB6
:1050D400982D002038B9054A03461354013010288E
:1050E400FBD1002001E04FF0FF307047782D002005
:1050F4007F2838B504460D4688BF4FF0FF301FD8CF
:1051040001F0AEFAE2080F4BE4435DB104F007048A
:10511400012010FA04F4C2F10F02995C41EA04047C
:10512400E4B209E004F00704012010FA04F4C2F127
:105134000F02995C21EA04049C5401F0A7FA0020B0
:1051440038BD00BF782D002010B520BB134C144986
:10515400024604F8202011F8303043F00F036FF3B7
:10516400041301F8303001EBC00393F803C001309D
:105174000CF0F00C6FF3071C83F803C093F805C020
:1051840040286FF3030C5A709A701A7183F805C0A3
:10519400DFD1002001E04FF0FF3010BDA82D00202A
:1051A400A82E0020F7B59B4E9B4D002416F8243002
:1051B400002B00F0288105EBC4039A780AB1013A68
:1051C4009A7006EB84039F7817B35B7803225B091C
:1051D40012FA03F115F834200193134662F38303A2
:1051E400013F8E4AFFB205F83430D35DC9B219428B
:1051F4000ED03846FFF72EFF50B13846FFF720FF98
:10520400019B184115F8343060F3010305F834307C
:1052140015F83410C1F3810201F003039A4200F03F
:10522400F28001F00F02012A16F8243002D113F0A3
:10523400100F08E0072A02D113F0200F03E00E2A12
:1052440002D113F0400F06D1082A14BF0020012018
:1052540010EAD31062D001F01001C9B229B905EBEC
:10526400C4029278E02A00F2CE80FF2B0BD105EB2A
:10527400C40315F83420DB7802F00F0203F00F03A7
:105284009A4200F0C08015F8343043F0100305F85A
:10529400343005EBC4031A799978891A142901DD8D
:1052A40014329A7006EB84035A7812F0030310D078
:1052B400022B4FEAC40320D1EB189978C2F382027F
:1052C400C2F1070251FA02F2597808BF01228A1A80
:1052D40016E005EBC4035979C2F38202D24301F00C
:1052E4000F01521802D559780139597005EBC403DE
:1052F400597962F30301597103E0EB185A78013AC2
:105304005A7005EBC4039A781A714FF0FF329A7001
:1053140015F83410DA7861F3030273E0022A02D13B
:1053240013F0010F0DE00B2A02D113F0020F08E075
:105334000D2A02D113F0040F03E0042A63D113F001
:10534400080F60D001F01001C9B221B105EBC4020D
:105354009278E02A57D8FF2B09D115F8343005EBA1
:10536400C402D27803F00F03B3EB121F4BD015F82D
:1053740034306FF3041305F8343005EBC4031A79A1
:105384009978891A142901DD14329A7006EB840382
:105394005A7812F0030310D0022B4FEAC40321D130
:1053A400EB189978C2F38202C2F1070251FA02F2B1
:1053B400597808BF0122521817E005EBC403597944
:1053C400C2F3820201F00F018A1801320F2A02DDB2
:1053D40059780131597005EBC403597962F303011B
:1053E400597103E0EB185A7801325A7005EBC40383
:1053F4009A781A714FF0FF329A7015F83410DA78EF
:1054040061F30712DA700134402C7FF4CFAE002030
:10541400FEBD00BFA82D0020A82E0020682D00206E
:10542400F7B505464FF0FF30BDB100240B4F2646BB
:1054340001F016F907EBC40393F9011039B15E705A
:10544400019101F023F920460199A84701E001F0F8
:105454001DF90134402CEBD10020FEBDA82E002004
:10546400014B1870002070475F01002008B50B4BFA
:1054740018800B4B19800B4B9A8812B1D2B29B79CE
:1054840001E0082306224243DFF81CC04B43ACF87A
:105494000020064A138004F09BFC08BDB6300020AF
:1054A400BC300020A8300020C0300020B4300020E0
:1054B40008B5034B1880034B198004F09BFC08BD0E
:1054C400C0300020B4300020044A0023C15C995449
:1054D4000133042BFAD10020704700BFB8300020FC
:1054E40013B504464FF0FF30D4B90E4B02A81C701C
:1054F4000D4B9C800D4B1B6840F8043DFFF7E4FF07
:10550400204604F0F7FB00280ADB04F05BFC21468C
:105514002046FFF7ABFF20462146FFF7C9FF204690
:105524001CBD00BFBE300020A83000202CA1000804
:1055340008B504F047FC08BD1FB5134B84461B781F
:10554400012B17D1114B4FF0FF309A88D2B10DF1D6
:10555400040E93E807008EE80700DA881989D20858
:105564004A430CFB020CCDF804C09EE8070004F08B
:105574004AFC01E004F05AFB002803DB044B1A88C0
:1055840001321A8005B000BDBE300020A8300020D2
:10559400B630002038B50546002402E0FFF7CCFF02
:1055A400044315F8010B0028F8D1204638BD00004B
:1055B40038B50C4B00241C7021462046FFF756FFDB
:1055C40005460948FFF7E6FF012140EA05052046A4
:1055D400FFF74CFF05430548FFF7DCFF45EA0000F1
:1055E40038BD00BF5F01002030A100083EA10008C3
:1055F4000FB410B592B014AA52F8041B01AC2046A3
:10560400119202F0E0FF2046FFF7C4FF12B0BDE89C
:10561400104004B0704708B504F0EFFB08BD08B5AE
:1056240004F0EEFB08BD000038B504464FF0FF302F
:10563400002C2CD1164A10231370164A20461370DE
:10564400154B1C60154B1C60154B1C60154B1C60E6
:10565400154B1C6002F02AFAC50F204600F026FD07
:105664000028B8BF45F00205002000F0BDFE0F4A37
:105674000028B8BF45F00405002313700C4A6842A3
:1056840013700C4A13700C4A13800C4A136038BD13
:1056940004000020050000206801002060010020B3
:1056A40084010020880100207C0100206C0100207E
:1056B400740100206D0100206E0100208001002093
:1056C40010F0F00F70B505460C4604D101280CBF4C
:1056D400164B174B1D78174B05F00F061B682BB1A3
:1056E40066F30714284621469847E8B905F0F00503
:1056F400202D0CD0302D11D0102D18BF4FF0FF30BD
:1057040012D166F30714204602F042FA0CE066F365
:1057140007143046214600F083FD05E066F30714C4
:105724003046214600F065FE70BD00BF0500002034
:10573400040000206001002008B54FF0000C4FEA7F
:10574400111E6EF3030C61F30F2C62F3174C63F319
:105754001F6C6146FFF7B4FF08BD08B541F0B00106
:10576400FFF7EAFF08BDF0B585B0174603900D4674
:105774000026062307224FF0040C40E0B91B02293F
:1057840014D003291FD00129A95D18BF6CF30304A9
:1057940006F1010618BF61F30F241AD1052060F346
:1057A400030461F30F246FF3174409E0A95D63F365
:1057B4000304013661F30F24A95D013661F3174434
:1057C4006FF31F640DE0A95D62F3030461F30F241A
:1057D4000136A95D013661F31744A95D013661F311
:1057E4001F640398214601920293CDF800C0FFF78D
:1057F40067FF0028019A029BDDF800C002DBBE426D
:10580400BCD3002005B0F0BD10B5F023A0B08DF8D6
:10581400003000238DF801308DF802307E338DF88E
:10582400033032238DF804300E4B0DF16B0C1B78D2
:105834008DF805300F238DF806306B46DA1D03E032
:1058440002F8014B624503D011F8014B002CF7D14B
:10585400F72102F8011BD21A6946FFF784FF20B032
:1058640010BD00BF6D01002000B5F02389B08DF894
:10587400003000238DF801308DF802307E338DF82E
:10588400033032238DF80430084B8DF806101B7852
:105894008DF807208DF805306946F72309228DF825
:1058A4000830FFF760FF09B000BD00BF6D010020A4
:1058B4000FB430B5A5B0289C02AD204604F0EAFA36
:1058C40064281ED92846204904F0DDFAF0238DF817
:1058D400003000238DF801308DF802307E338DF8CE
:1058E400033032238DF80430184B08221B788DF8CE
:1058F40005300D238DF8063033338DF8073002ABB5
:105904000FE029AA28462146239202F05CFEDDE737
:10591400013292B200F07F00882A03F8010C194684
:1059240004D0194613F8010B0028F1D1F7230B70AA
:10593400074B0132187892B26946FFF714FF25B07D
:10594400BDE8304004B0704770A100086D0100202C
:105954000500002030B50B4659498BB00978044640
:105964000D295ED001D839B19DE00E2900F0A58043
:105974000F2940F098808AE01BB1012B514B02D1D2
:1059840056E0504A98E01B78052B25D00AD8022B04
:1059940017D002D8012B40D111E0032B13D0042BD4
:1059A4003BD112E0082B2FD004D8062B1ED0072B96
:1059B40033D11EE0092B29D07F2B2ED12AE0424976
:1059C40025E0424923E0424921E000F05BFD6D46B9
:1059D40002464049684612E0684600F069FD002826
:1059E4006D46BCBF20463C490BDA10E000F050FD88
:1059F40001E000F055FD394902466D46684602F063
:105A0400D3FD2046694602E0354900E03549FFF7F9
:105A1400FBFE52E000F0FAFC4FE020460E210D227E
:105A24003EE01BB1012B304D14D103E02E4BFF227D
:105A34001A7042E02B78FF2B08BF2A703DD0002B50
:105A44003BD12A4B1B68002B37D0294908781146D3
:105A5400984732E02A78BAB90F21FFF705FF2B786F
:105A6400002B2AD1214B1B68002B26D1214B012C62
:105A74001D78214818BF1C702146FFF719FF012D1E
:105A84001CBF1C4B1D7018E00E21102208E01B4A9D
:105A940013B1012B194A01D153600EE0526862B967
:105AA400FFF7E2FE09E00E210A462046FFF7DCFE7E
:105AB400124A00231370024A137000200BB030BD49
:105AC4006401002070010020C3A10008CAA10008DD
